:020000040800F2
:10000000784C002029020008F1520008174500082A
:10001000ED520008B50E00089F83000800000000A4
:10002000000000000000000000000000417F000808
:10003000771900080000000045550008437F0008BC
:10004000430200084302000843020008430200087C
:10005000430200084302000879190008430200081F
:1000600043020008831900088D19000843020008A4
:10007000430200084302000843020008430200084C
:10008000430200084302000843020008430200083C
:10009000B90E00084302000843020008971900083F
:1000A000430200086580000843020008430200087C
:1000B000430200084302000843020008430200080C
:1000C00043020008430200084302000843020008FC
:1000D00043020008430200084302000843020008EC
:1000E00043020008430200084302000843020008DC
:1000F0007D80000843020008430200084302000814
:1001000043020008430200084302000843020008BB
:1001100043020008430200084302000843020008AB
:1001200043020008430200082D10000843020008A3
:10013000430200084302000843020008430200088B
:10014000C90E0008430200084302000843020008E9
:10015000430200084302000843020008430200086B
:10016000430200084302000843020008430200085B
:100170004302000843020008430200080000000098
:10018000430200084302000800F002F800F03CF8C7
:100190000AA090E8000C82448344AAF10107DA45E2
:1001A00001D100F031F8AFF2090EBAE80F0013F0F8
:1001B000010F18BFFB1A43F00103184744C60000A3
:1001C00064C60000103A24BF78C878C1FAD8520734
:1001D00024BF30C830C144BF04680C6070470000C1
:1001E0000023002400250026103A28BF78C1FBD840
:1001F000520728BF30C148BF0B6070471FB50BF0D6
:100200005DFD1FBD10B510BD00F070F91146FFF780
:10021000F5FF0AF03DF900F08EF903B4FFF7F2FFA5
:1002200003BC00F0F3F90000094880470948004783
:10023000FEE7FEE7FEE7FEE7FEE7FEE7FEE7FEE796
:10024000FEE7FEE704480549054A064B70470000F3
:100250000180000889010008780C0020784C0020FB
:10026000782C0020782C00209FED1A1AF5EE000A59
:1002700040EE010ABDEEE00AF5EEC00A10EE100AEB
:10028000F1EE10FA38BF401E00EE100A1349F7EEE7
:10029000001AB8EEC00A30EEC00ADFED0F0A20EEF9
:1002A000200AFCEEC00A10EE900AC0F3080000EE2F
:1002B000900A01EB8000F8EE600A90ED011A70EEF2
:1002C000600A90ED000A71EEE01A21EE800A00EE5D
:1002D000810A704783F9223E00000044FCBF0008F9
:1002E000DFED190AB5EEC00A60EE200ABDEEE01A95
:1002F00011EE100AF1EE10FA38BF401E00EE100A9F
:100300001349F7EE001AB8EEC00A30EEC00ADFED6E
:100310000F0A60EE200ABCEEE00A10EE100AC0F3ED
:10032000080000EE100A01EB8000B8EE400A90EDE4
:10033000011A70EEC00A90ED000A71EEE01A21EE8B
:10034000800A00EE810A704783F9223E00000044D3
:10035000FCBF000853EA020C00F069802DE9F04B65
:100360004FF00006002B1FBFB3FA83F503FA05F424
:1003700024FA05F65E4012BF1643B2FA82F502FA7D
:1003800005F4C5F120051EBF22FA05FC44EA0C0461
:10039000203556EA044C4FEA144418BF641C4FF051
:1003A00000084FF00009904271EB030C39D300298B
:1003B00019BFB1FA81F701FA07F6B0FA80F700FA2F
:1003C00007F6C7F120071EBF20FA07FC46EA0C0615
:1003D0002037B6FBF4FCA7EB0507103F07F01F0B17
:1003E000CBF120060CFA0BFB2CFA06F644BFB34601
:1003F0000026202FA4BF5E464FF0000B5BEA060CE0
:1004000008BF4FF0010B19EB0B09ABFB027C48EB6B
:100410000608C01B06FB02CC0BFB03CC71EB0C01E6
:10042000C1E70B46024641464846BDE8F08B13B58E
:100430004FF000004FF00001AFF30080BDE81C401A
:1004400070474FF0000200B5134694469646203997
:1004500022BFA0E80C50A0E80C50B1F12001BFF47D
:10046000F7AF090728BFA0E80C5048BF0CC05DF8E3
:1004700004EB890028BF40F8042B08BF704748BF31
:1004800020F8022B11F0804F18BF00F8012B7047A5
:1004900070477047704710B500F008F8006810BD4D
:1004A00010B5044600F002F8046010BD0048704723
:1004B000180C00201FB584B000200A9C06AB04AACB
:1004C00002A90094AFF3008018B1DDE9020108B081
:1004D00010BD0348204000F037F800200146F6E741
:1004E0000000207C00487047180C00207546FFF77C
:1004F000F9FFAE4605006946534620F007008546E1
:1005000018B020B5FFF79EFEBDE820404FF0000672
:100510004FF000074FF000084FF0000B21F00701EB
:10052000AC46ACE8C009ACE8C009ACE8C009ACE82E
:10053000C0098D46704710B50446AFF300802046D1
:10054000BDE81040FFF769BE10B500F009F8BDE83E
:100550001040AFF30080002801D000F057B870477A
:1005600010B5022803D0410103D50DA112E00020EF
:1005700010BD010101D50FA10CE0C10001D511A1F1
:1005800008E0810001D512A104E0400001D513A1CB
:1005900000E0002115A000F03FF8012010BD000090
:1005A000496E76616C6964204F7065726174696F21
:1005B0006E000000446976696465204279205A65BE
:1005C000726F00004F766572666C6F7700000000F6
:1005D000556E646572666C6F77000000496E6578D1
:1005E00061637420526573756C740000534947460B
:1005F00050453A2041726974686D6574696320657D
:100600007863657074696F6E3A20000001491820A4
:10061000ABBEFEE72600020070B505460C460A2078
:1006200000E06D1C00F011F835B128780028F8D1F1
:1006300002E0641C00F009F814B120780028F8D119
:10064000BDE870400A20AFF3008008B569468DF818
:1006500000000320ABBE08BD704710B52DED028B26
:10066000B0EE408AB0EE480A07F0AEFEBDEC028B59
:1006700010BD10B52DED028BB0EE408AF0EE608A11
:10068000F0EE680AB0EE480A07F034FFBDEC028BCA
:1006900010BD10B52DED028BB0EE408AB0EE480AC9
:1006A000FFF7E2FDBDEC028B10BDF0EE400AF5EE67
:1006B000C00AF1EE10FA02DDB0EE600A7047B1EE4A
:1006C000600AFBE718B19FED020A80ED000A70474F
:1006D0000000000018B1B3EE060A80ED000A704772
:1006E00070B52DED0C8B84B006460C4615469FED7B
:1006F000990AF0EE408A9FED970AB0EE409A9FED7E
:10070000950AF0EE40BA9FED930AF0EE409A9FED05
:10071000910AB0EE40AA0EB104B11DB904B0BDEC0F
:100720000C8B70BD8C48FFF7CDFF8C48FFF7D2FFD4
:100730008A48D0ED000A9FED8A1A60EE810AB0EE79
:10074000600A00F02DF9F0EE408A28EEA80AF0EEDB
:10075000408A8248D0ED000AB0EE001A60EE810AAD
:100760009FED7F1A60EE810AB0EE600A00F018F982
:10077000B0EE409A29EE090AB0EE409ADFED790A10
:10078000B7EE000A00EEA80ADFED770A00EEC90A0C
:10079000DFED760A20EE200A754880ED000A6E48EB
:1007A00090ED000ADFED730A80EE201AB7EE000A22
:1007B00031EE000A20EE000A6D48D0ED000A80EE0E
:1007C000801A6D4880ED001A94ED000AB5EEC00A5B
:1007D000F1EE10FA0DD194ED010AB5EEC00AF1EE7A
:1007E00010FA06D194ED020AB5EEC00AF1EE10FA45
:1007F00046D09FED580AB0EE408A0020019002904A
:100800000390D4ED000A60EEA00A94ED011AD4ED35
:10081000011A41EE210A94ED021AD4ED021A41EEBA
:10082000210AB0EE600A00F0A9F8B0EE408A94ED1B
:10083000000A20EE080A8DED010A94ED010A20EE6F
:10084000080A8DED020A94ED020A20EE080A8DEDE9
:10085000030ADDED010AF1EE600AB0EE600AFFF76F
:10086000FCFEF0EE409A9DED031AF0EE410A9DED7C
:10087000021AB0EE410AFFF7FCFEB0EE40AA07E014
:100880009FED340AF0EE409A9FED320AB0EE40AA96
:1008900095ED000AB5EEC00AF1EE10FA0DD195ED16
:1008A000010AB5EEC00AF1EE10FA06D195ED020A82
:1008B000B5EEC00AF1EE10FA3CD0B0EE690A00F0D5
:1008C0006FF8B0EE408AB0EE690AFFF7E2FEB0EED4
:1008D00040DAB0EE4A0A00F063F8F0EE40AAB0EE5B
:1008E0004A0AFFF7D6FEB0EE40BA28EE2A0AD5ED46
:1008F000010A20EE200AD5ED000A0DEE200A68EE6E
:100900000B0A95ED021A00EE810AB0EE40CA95ED91
:10091000010A20EE0B0AD5ED020A0AEEE00AF0EE1B
:1009200040CAF0EE6C0AB0EE4C0AFFF7A2FEF0EE01
:1009300040BA03E09FED070AF0EE40BAB0EE4A1A63
:10094000F0EE690AB0EE6B0A304608F015F900BF08
:10095000E4E6000000000000B8000020BC00002019
:1009600035FA8E3CC1BFAD3B9DF8C5362F7C1C418E
:10097000C0000020506CC24AC400002010B52DED0C
:10098000028BB0EE408AB0EE480A07F013FFB7EED4
:10099000001AC1EE000AB0EE600ABDEC028B10BD79
:1009A00010B52DED028BB0EE408AB0EE480AFFF78D
:1009B00097FCBDEC028B10BD2DE9F0412DED028BB3
:1009C0009AB00546B0EE408A0E461746984600207B
:1009D0001790189019901490159016904DB146B13B
:1009E0003FB1B8F1000F04D0B5EEC08AF1EE10FAB5
:1009F00005D100201AB0BDEC028BBDE8F08196ED68
:100A0000000A8DED170A96ED010A8DED180A96ED94
:100A1000020A8DED190A97ED000A8DED140A97ED83
:100A2000010A8DED150A97ED020A8DED160A17AA37
:100A300014A9284607F0F2FE402104A8FFF701FDA3
:100A400000200090019002900390002417A904A8B0
:100A50000AF050F800BF30E004A800EB041090ED5D
:100A6000000AD5ED000A20EE200A04A800EB0410CD
:100A7000D0ED010A95ED011A00EE810A04A800EB01
:100A80000410D0ED020A95ED021A00EE810A04A8C6
:100A900000EB0410D0ED030A95ED031A00EE810A75
:100AA00020EE080AF0EE000A80EE201A684600EBFD
:100AB000840080ED001A601CC4B2042CCCDB00243E
:100AC00010E005EB840090ED000A684600EB84001E
:100AD000D0ED000A30EE200A05EB840080ED000A1C
:100AE000601CC4B2042CECDB284609F081FF012015
:100AF00080E7000010B501221021024801F020FF1C
:100B000010BD00000000024010B500221021024874
:100B100001F016FF10BD0000000002407047000009
:100B200010B501221146024801F00AFF10BD000075
:100B30000004024010B500220121024801F000FF2C
:100B400010BD00000004024010B543781B021BB228
:100B50000478234300EE103AB8EEC01A1C4BD3EDD4
:100B6000001A21EE211A81ED001AC3781B021BB274
:100B70008478234300EE103AB8EEC01A144BD3ED3C
:100B8000001A21EE211A81ED011A43791B021BB2D2
:100B90000479234300EE103AB8EEC01A0C4BD3EDA3
:100BA000001A21EE211A81ED021A037A1B04C4797E
:100BB00043EA04238479234300EE903AB8EE601AA6
:100BC000DFED041A21EE211A82ED001A10BD00009B
:100BD0008000002000401C42704710B504462046AB
:100BE00001F022FD10BD10B50446204609F03CF985
:100BF00010BD00004278120212B203781A4300EED0
:100C0000102AF8EEC00A144A92ED001A60EE810A2A
:100C1000C1ED000AC278120212B283781A4300EEC4
:100C2000102AF8EEC00A0C4A92ED001A60EE810A12
:100C3000C1ED010A4279120212B203791A4300EEA1
:100C4000102AF8EEC00A044A92ED001A60EE810AFA
:100C5000C1ED020A704700008400002010B5002496
:100C6000FFF75CFFFFF7B8FF08F0D6F810B144F0CB
:100C7000800402E008F036F8044308F0C5FA10B129
:100C800044F0400402E008F045FA0443204610BD59
:100C90002DE9FC4105460E461746002000900190C4
:100CA000FFF732FF922000F0D1F8062269461220A9
:100CB00000F0ACF8FFF71EFF9DF80100000200B243
:100CC0009DF8001040EA010400EE104AB8EEC00A98
:100CD0004C48D0ED000A20EE200A86ED000A9DF86F
:100CE0000300000200B29DF8021040EA010400EE89
:100CF000104AB8EEC00A4348D0ED000A20EE200AA0
:100D000086ED010A9DF80500000200B29DF804106E
:100D100040EA010400EE104AB8EEC00A3948D0EDAE
:100D2000000A20EE200A86ED020AFFF703FF0822E0
:100D30006946002000F06AF8FFF7F2FE9DF8000017
:100D40000F2838D19DF80300000200B29DF8021070
:100D500040EA010400EE104AB8EEC00A2A48D0ED7D
:100D6000000A20EE200A85ED000A9DF80500000229
:100D700000B29DF8041040EA010400EE104AB8EEFB
:100D8000C00A2148D0ED000A20EE200A85ED010AB4
:100D90009DF80700000200B29DF8061040EA010429
:100DA00000EE104AB8EEC00A1748D0ED000A20EE57
:100DB000200A85ED020AFFF7A7FEA22000F046F800
:100DC00002226946222000F021F8FFF793FE9DF8E9
:100DD0000000C0009DF8011040EA6114B4F5806F76
:100DE00002DBA4F5006004B200EE104AF8EEC00A7F
:100DF000B4EE001AB3EE070A00EE810A87ED000A8E
:100E0000BDE8FC81800000208400002070B506460B
:100E10000C46154646F0800000F018F806E0552014
:100E200000F014F82070641C681EC5B2002DF6D1C5
:100E300070BD70B504460D4644F0800000F006F821
:100E4000552000F003F8287070BD000001B582B095
:100E50004FF47A70012301AA02A90090024802F01F
:100E6000F7FD9DF804000EBD6C01002010B5024690
:100E70001378DB00547843EA6410B0F5806F02DB2E
:100E8000A0F5006318B200EE100AF8EEC00AB4EE46
:100E9000001AB3EE070A00EE810A81ED000A10BDC8
:100EA00070B505460C462846FFF7D0FF2046FFF7F1
:100EB000CDFF70BD00BFFEE710B5024800F053FF44
:100EC00010BD0000C800002010B5024800F04BFF24
:100ED00010BD0000F000002038B5044640F241107B
:100EE0000D49086000208860C86008200861A120C2
:100EF0000A490870002048708870C8700C71200A78
:100F0000487100208871C8716B460A46024904483E
:100F100000F05BFD38BD00004805002049000020BE
:100F2000C800002008B540F241100C4908600020BC
:100F30008860C860082008619A200949087000206C
:100F400048708870C870087148718871C8716B46A4
:100F50000A460249034800F038FD08BD4805002054
:100F600049000020C800002008B54FF4A1700C49CA
:100F7000086000208860C860082008619A2009493C
:100F80000870002048708870C870087148718871B6
:100F9000C8716B460A460249034800F016FD08BDB9
:100FA0004805002049000020C80000201C4991EDA0
:100FB000150ADFED1C0AB4EEE00AF1EE10FA03DDCB
:100FC0009FED180A81ED150A154991ED150ADFED1F
:100FD000160AB4EEE00AF1EE10FA03D29FED120AFF
:100FE00081ED150A0E4991ED130ADFED0E0AB4EEFC
:100FF000E00AF1EE10FA03DD9FED0A0A81ED130A13
:10100000074991ED130ADFED080AB4EEE00AF1EEAC
:1010100010FA03D29FED040A81ED130A7047000015
:10102000780500200000C8440000C8C410B5FE4880
:10103000C06C0068FD49884276D9FC485438006885
:10104000F949C96C0968FA4A914201D1202169E045
:10105000F549C96C0968F54A483A914201D1202105
:1010600060E0F149C96C0968F14A6032914201D1EE
:10107000202157E0EC49C96C0968EC4A18329142CA
:1010800001D120214EE0E849C96C0968E84A1832CC
:10109000914201D1C91445E0E349C96C0968E34AAA
:1010A000303A914201D1C9143CE0DF49C96C09686A
:1010B000DF4A7832914201D1C91433E0DA49C96C70
:1010C0000968DA4A3032914201D1C9142AE0D6497E
:1010D000C96C0968D64A3032914202D14FF40011EE
:1010E00020E0D149C96C0968D04A183A914202D12E
:1010F0004FF4001116E0CC49C96C0968CC4A903213
:10110000914202D14FF400110CE0C749C96C096843
:10111000C64A4832914203D14FF4001102E003E085
:101120004FF00061084070E1BF48C06C0068C049E2
:10113000A831884276D9BD4858380068BA49C96C88
:101140000968BB4A914201D1202169E0B649C96CC6
:101150000968B64A483A914201D1202160E0B2497B
:10116000C96C0968B24A6032914201D1202157E02E
:10117000AD49C96C0968AD4A1832914201D12021AC
:101180004EE0A949C96C0968A94A1832914201D1B7
:10119000C91445E0A449C96C0968A44A303A91428F
:1011A00001D1C9143CE0A049C96C0968A04A783251
:1011B000914201D1C91433E09B49C96C09689B4A2B
:1011C0003032914201D1C9142AE09749C96C0968AB
:1011D000974A3032914202D14FF4001120E09249F7
:1011E000C96C0968914A183A914202D14FF4001132
:1011F00016E08D49C96C09688D4A9032914202D13E
:101200004FF400110CE08849C96C0968874A4832DC
:10121000914203D14FF4001102E003E04FF000616E
:101220000840F2E08048C06C00688149483188423B
:1012300076D97F48103840687B49C96C09687C4A78
:10124000914201D1202169E07749C96C0968774A48
:10125000483A914201D1202160E07349C96C096884
:10126000734A6032914201D1202157E06E49C96C26
:1012700009686E4A1832914201D120214EE06A4934
:10128000C96C09686A4A1832914201D1C91445E013
:101290006549C96C0968654A303A914201D1C9145F
:1012A0003CE06149C96C0968614A7832914201D1D8
:1012B000C91433E05C49C96C09685C4A3032914218
:1012C00001D1C9142AE05849C96C0968584A30321A
:1012D000914202D14FF4001120E05349C96C0968D2
:1012E000524A183A914202D14FF4001116E04E4989
:1012F000C96C09684E4A9032914202D14FF40011F4
:101300000CE04949C96C0968484A4832914203D106
:101310004FF4001102E003E04FF00061084074E078
:101320004348103800684049C96C0968404A9142F6
:1013300001D1202168E03C49C96C09683B4A483A20
:10134000914201D120215FE03749C96C0968384AD0
:101350006032914201D1202156E03349C96C0968BD
:10136000324A1832914201D120214DE02E49C96CF8
:1013700009682F4A1832914201D1C91444E02A4920
:10138000C96C0968294A303A914201D1C9143BE03D
:101390002549C96C0968264A7832914201D1C9149D
:1013A00032E02149C96C0968204A3032914201D1AA
:1013B000C91429E01C49C96C09681D4A30329142A0
:1013C00002D14FF400111FE01749C96C0968174A90
:1013D000183A914202D14FF4001115E01249C96C3C
:1013E0000968134A9032914202D14FF400110BE088
:1013F0000D49C96C09680D4A4832914202D14FF437
:10140000001101E04FF00061084000286FD006484D
:10141000C06C0068054988427BD90348C06C0068ED
:101420000349884208D105E06C010020586402405D
:1014300010600240202068E0FE48C06C0068FE4951
:10144000884201D1202060E0FA48C06C0068FB4966
:10145000884201D1202058E0F648C06C0068F64967
:101460006031884201D120204FE0F248C06C006812
:10147000F2494839884201D1C01446E0ED48C06CB9
:101480000068ED491831884201D1C0143DE0E948B7
:10149000C06C0068E9491831884201D1C01434E0B9
:1014A000E448C06C0068E4497831884201D1C01436
:1014B0002BE0E048C06C0068E0493039884202D136
:1014C0004FF4001021E0DB48C06C0068DA4930318D
:1014D000884202D14FF4001017E0D648C06C006873
:1014E000D6493031884204D14FF400100DE0DFE1DD
:1014F0000FE0D048C06C0068CF499031884202D1DB
:101500004FF4001001E04FF00060CB49091F086064
:101510006AE1C848C06C0068C8494831884274D93B
:10152000C448C06C0068C5496039884201D1202098
:1015300066E0C048C06C0068BF49884201D12020E5
:101540005EE0BC48C06C0068BC49884201D12020E4
:1015500056E0B848C06C0068B7496031884201D194
:1015600020204DE0B348C06C0068B4494839884237
:1015700001D1C01444E0AF48C06C0068AE491831D6
:10158000884201D1C0143BE0AA48C06C0068AB4956
:101590001831884201D1C01432E0A648C06C0068FE
:1015A000A5497831884201D1C01429E0A148C06C16
:1015B0000068A2493039884202D14FF400101FE080
:1015C0009C48C06C00689C493031884202D14FF47D
:1015D000001015E09748C06C006898493031884287
:1015E00002D14FF400100BE09248C06C00689249A1
:1015F0009031884202D14FF4001001E04FF00060BA
:101600008D4908390860EFE0FFE78A48C06C006840
:101610008A491839884274D98648C06C006887495D
:101620006039884201D1202066E08248C06C0068A1
:101630008149884201D120205EE07E48C06C00686C
:101640007E49884201D1202056E07A48C06C00686B
:1016500079496031884201D120204DE07548C06C45
:10166000006876494839884201D1C01444E0714885
:10167000C06C006870491831884201D1C0143BE049
:101680006C48C06C00686D491831884201D1C014A3
:1016900032E06848C06C006867497831884201D1FF
:1016A000C01429E06348C06C00686449303988423E
:1016B00002D14FF400101FE05E48C06C00685E4924
:1016C0003031884202D14FF4001015E05948C06C07
:1016D00000685A493031884202D14FF400100BE0C3
:1016E0005448C06C006854499031884202D14FF48C
:1016F000001001E04FF0006050497039C86073E09D
:10170000FFE74C48C06C00684C496039884201D101
:10171000202066E04748C06C00684749884201D1F4
:1017200020205EE04348C06C00684449884201D1F3
:10173000202056E03F48C06C00683F496031884235
:1017400001D120204DE03B48C06C00683B4948393E
:10175000884201D1C01444E03648C06C0068364964
:101760001831884201D1C0143BE03248C06C006897
:1017700032491831884201D1C01432E02D48C06C82
:1017800000682D497831884201D1C01429E02948E8
:10179000C06C006829493039884202D14FF40010EA
:1017A0001FE02448C06C006823493031884202D1D0
:1017B0004FF4001015E01F48C06C00681F4930311D
:1017C000884202D14FF400100BE01A48C06C006848
:1017D00019499031884202D14FF4001001E04FF0D6
:1017E00000601649703988601548007800F00200E2
:1017F00078B11348007820F00200114908700846BB
:10180000007840F004000870012211460D4801F0F4
:1018100097F80D48007800F00200E0B10A4800781F
:1018200020F00200084908700846007840F00400E3
:1018300008700BE06C0100201064024070600240F0
:10184000310000200004024032000020012210215B
:10185000184801F075F81848007800F0020078B1D7
:101860001548007820F002001349087008460078F7
:1018700040F004000870012210210E4801F060F8C9
:1018800008F012FC0D48007800F0040080B10B480D
:10189000007820F00400094908700846007840F0FC
:1018A000080008700648006840F00100044908601C
:1018B00010BD000000000240330000203100002075
:1018C000103C014001680A4BCAB2103AA3FB023235
:1018D0001209084B9B5CC365032A04D96FF3090105
:1018E000091D816502E06FF309018165806D704714
:1018F000ABAAAAAAE6BF0008014600208A6A8B6943
:10190000002B0FD0B3F5005F1DD08AB3012A30D071
:10191000022A2ED0032A04D1C96A11F0807F00D098
:10192000012070471AB1012A07D0022AF9D1C96AE9
:1019300011F0807FF5D001207047C96AB1F1C07FF6
:10194000FAD1012070475AB1012A0BD0022A07D0E0
:10195000032AF7D1C96AB1F1C07FF3D101207047E2
:1019600001207047C96A11F0807FFAD001207047CA
:10197000FFE701207047704710B5012000F0BCFE62
:1019800010BD10B5082000F0B7FE10BD10B5102036
:1019900000F0B2FE10BD10B5202000F0ADFE10BD6D
:1019A00072B600BFFEE790F82020012A07D0022A75
:1019B00005D0416A41F480214162012070470068EE
:1019C0004269114341610020704770B490F8204093
:1019D000D0F800C0DCF808C0012C08D0022C06D0DA
:1019E000416A41F48021416270BC012070470CF0D3
:1019F00080640CF000652C4302D11CF0805F5FD046
:101A0000CCF3016CBCF1020F06D9416A41F400012C
:101A1000416270BC01207047012404FA0CF41C6080
:101A20008B684FF4C0749BB1CD6804EB0C162B434C
:101A30004D6843EAC5030568AB514FF4C2730668AD
:101A400003EB0C130D69F550097D012909D00DE058
:101A50000D88CB6804EB0C1643EA45530568AB517F
:101A6000EBE70168CD5845F48075CD501179D379F5
:101A7000557941EA036193791B0443EA052319432D
:101A80004FF4C675036805EB0C1559511178D378DE
:101A900041EA0361937852781B0443EA022211431E
:101AA0004FF4C473026803EB0C13D150016804EBCC
:101AB0000C100A5842F001020A5070BC0020704716
:101AC000416A41F40011416270BC0120704700007E
:101AD00090F82020012A07D0022A05D0416A41F45B
:101AE00080214162012070474248D0F8002242F034
:101AF0000102C0F80022D0F8002222F47C52C0F883
:101B00000022D0F800224B6A42EA0322C0F80022E9
:101B10000A7D012302F01F0203FA02F2D0F81C3200
:101B20009343C0F81C32CB69D3B9D0F80C3293433D
:101B3000C0F80C32B1F80CC04B686CF31F43D1F8FD
:101B400014C000EBCC0CCCF84032B1F808C00B68E4
:101B50006CF31F43D1F814C000EBCC0CCCF844322A
:101B6000CB69012B1AD1D0F80C321343C0F80C32D8
:101B7000B1F800C04B686CF31F43D1F814C000EB00
:101B8000CC0CCCF84032B1F808C0CB686CF31F43E2
:101B9000D1F814C000EBCC0CCCF844328B697BB18B
:101BA000D0F804321343C0F804320B6973B1D0F893
:101BB00014321343C0F81432096A01290CD010E022
:101BC000D0F804329343C0F80432EEE7D0F8143270
:101BD0009343C0F81432EFE7D0F81C121143C0F859
:101BE0001C12D0F8001221F00101C0F800120020F0
:101BF0007047000000640040704710B490F820C0A7
:101C0000BCF1010F09D0BCF1020F06D0416A41F4CA
:101C10008021416210BC0120704739B1D0F800C06A
:101C2000DCF810C01CF0030F7DD006E0D0F800C037
:101C3000DCF80CC01CF0030F7BD04FF4D87C046898
:101C40000CEB011C54F80C4004F004049460002CCC
:101C50007DD0046854F80C40E4085460046854F8DB
:101C60000CC00CF0020CC2F80CC04FF4DA7C046813
:101C70000CEB011C54F80C4004F00F0414610468D0
:101C800054F80C40C4F307249461046854F80CC061
:101C90004FEA1C4CC2F814C04FF4DC72D0F800C0FC
:101CA00002EB01125CF802C083F800C0D0F800C05B
:101CB0005CF802C04FEA1C2C83F801C0D0F800C0C9
:101CC0005CF802C04FEA1C4C83F802C0D0F800C098
:101CD0005CF80220120EDA704FF4DE72D0F800C009
:101CE00002EB01125CF802C083F804C0D0F800C017
:101CF0005CF802C04FEA1C2C83F805C0D0F800C085
:101D00005CF802C04FEA1C4C83F806C0D0F800C053
:101D10005CF80220120EDA71F9B10068016941F035
:101D20002001016102E00BE003E010E010BC0020A4
:101D30007047416A41F40011416210BC01207047B4
:101D4000416A41F40011416210BC012070470468EF
:101D500054F80C40640D146080E70068C16841F0DD
:101D60002001C160DEE72DE9F05F05460024286808
:101D70004669D0F804908768D0F80CA0D0F810B06D
:101D8000D0F8188016F0010F54D017F0010F17D0BB
:101D90000121816017F0020F03D0284600F0C8FB34
:101DA0000EE017F0040F02D04FF4006408E017F0C3
:101DB000080F02D04FF4805402E0284600F0B7FB31
:101DC00017F4807F19D029684FF48070886017F469
:101DD000007F03D0284600F0ADFB0EE017F4806FC3
:101DE00002D044F4005408E017F4006F02D044F429
:101DF000804402E0284600F09CFB17F4803F19D095
:101E000029684FF48030886017F4003F03D02846DB
:101E100000F092FB0EE017F4802F02D044F400444F
:101E200008E017F4002F02D044F4803402E0284682
:101E300000F081FB16F0080F07D01AF0100F04D045
:101E400044F4007429681020C86016F0040F4FF0A5
:101E5000080707D01AF0080F04D02868C760284682
:101E600000F000FA16F0020F07D02868C06810F0E2
:101E7000030F02D0284600F0F7F916F0400F07D004
:101E80001BF0100F04D044F480642968102008610E
:101E900016F0200F07D01BF0080F04D02868076148
:101EA000284600F00FFB16F0100F07D028680069D5
:101EB00010F0030F02D0284600F005FB16F4003F97
:101EC00008D019F0100F05D0296810204860284666
:101ED00000F0FAFA16F4803F07D019F0080F04D08A
:101EE00028684760284600F028FB16F4004F4AD0C7
:101EF00019F0040F44D016F4807F04D018F0010FBD
:101F000001D044F0010416F4007F04D018F0020F51
:101F100001D044F0020416F4806F04D018F0040FCE
:101F200001D044F0040416F4006F29D018F0700FAB
:101F300026D008F07000402815D006DC102809D003
:101F400020280AD0302816D10AE050280ED0602868
:101F500011D10EE044F008040DE044F010040AE052
:101F600044F0200407E044F0400404E044F080041E
:101F700001E044F480742868816921F07001816176
:101F8000296804204860002C05D0686A20436862F4
:101F90002846FFF731FEBDE8F09F70B50446002CDF
:101FA00003D094F8200010B104E0012070BD204659
:101FB00000F0A8F82068016841F00101016000F01C
:101FC000C7FC0546206840684FF0050610F0010F79
:101FD00011D100F0BDFC401B0A2807D9606A40F40B
:101FE0000030606284F82060012070BD2068406885
:101FF00010F0010FEDD02068016821F002010160AE
:1020000000F0A6FC05462068406810F0020F11D0D1
:1020100000F09EFC401B0A2807D9606A40F400309B
:10202000606284F82060012070BD2068406810F074
:10203000020FEDD1207E01283FD02068016821F0F9
:1020400080010160607E01283DD02068016821F098
:1020500040010160A07E01283BD02068016821F08A
:1020600020010160E07E012839D02068016841F03C
:1020700010010160207F012837D02068016821F01D
:1020800008010160607F012835D02068016821F0D7
:1020900004010160E168A068626908432169114395
:1020A00008436168491E08432168C86100206062D6
:1020B000012084F82000002070BD2068016841F0F4
:1020C00080010160BEE72068016841F040010160C5
:1020D000C0E72068016841F020010160C2E7206884
:1020E000016821F010010160C4E72068016841F037
:1020F00008010160C6E72068016841F00401016041
:10210000C8E7000010B586B00446142101A8FEF708
:1021100098F94E492068884241D14D480068401CDA
:102120004B4908600846006801280FD100BF002015
:1021300000904848006840F0007046490860084632
:10214000006800F00070009000BF00BF00BF0020DA
:10215000009040481038006840F008003D491039B0
:1021600008600846006800F00800009000BF00BF4B
:10217000032001900220029000200390032004908D
:102180000920059001A9344800F0C2FA0022062176
:10219000142000F0ADFF142000F09CFF54E02F4904
:1021A0002068884250D100BF002000902948006874
:1021B00040F08060274908600846006800F08060B1
:1021C000009000BF00BF22480068401C2049086002
:1021D0000846006801280FD100BF002000901D486C
:1021E000006840F000701B4908600846006800F075
:1021F0000070009000BF00BF00BF00200090154895
:102200001038006840F00200124910390860084692
:10221000006800F00200009000BF00BF6020019045
:1022200002200290002003900320049009200590D2
:1022300001A90B4800F06CFA00221146402000F082
:1022400057FF402000F046FF06B010BD006400407C
:102250000000002040380240000C024000680040AE
:10226000000402407047000010B58EB004468C494F
:10227000206888427DD18B4B6A4600212046FFF7BB
:10228000BCFC0098A0F2411010B1012872D100E00E
:1022900000BF0098A0F2411083490870814800787F
:1022A000A12840D10846007800EB40007F4931F872
:1022B000200000B27C49097801EB41017B4A02EB26
:1022C00081010881774880797649C97940EA0120FF
:1022D0007549097801EB410122F821007148007924
:1022E0007049497940EA012000B26F49097801EB51
:1022F000410102EB810148806A4880786949C978C8
:1023000040EA012000B26849097801EB410102EB83
:1023100081018880634840786349097801EB410175
:1023200002EB810188715F480078302838D15D4820
:1023300080785D49097801EB41015D4A22F821006E
:102340005848C0785849097801EB410102EB8101F6
:102350004880544800795449097801EB410102EB67
:10236000810188804F4840794F49097801EB41014C
:1023700001E03BE039E002EB8101C8804948807907
:102380004949097801EB410102EB81010881454887
:10239000C0794549097801EB410102EB810148818F
:1023A000404800789A281FD13E48407840B23E49C4
:1023B000097801EB41013F4A02F811003948807861
:1023C0003849C97840EA01203749097801EB4101D1
:1023D00002EB410148803348C0793349097801EB69
:1023E000410102EB4101087100BF00BF3249206882
:1023F000884252D1314B07AA00212046FFF7FDFB4E
:1024000040F211620798811A904227D012DC40F204
:102410000262A0EB020190421DD006DCB0F5C06F55
:1024200017D0A0F2016000BB14E0012914D00E29DE
:102430001BD112E0FF2920D004DC01290FD0022992
:1024400013D10DE0B1F5807F1ED0A1F2011161B969
:102450000CE000BF00BF00BF00BF00BF00BF00BF57
:10246000164907A808F004FA16E015E01449134AC3
:1024700005CA05C108F038FB0EE011480F4909688C
:10248000816008F031FB07E00D480C4A06CAC0E93C
:10249000031208F029FB00BF00BF0EB010BD000002
:1024A000006400406A05002051000020C0040020A4
:1024B000D8040020F00400200068004060050020DF
:1024C000FC04002070477047704770B5044694F8CC
:1024D0002000012805D0606A40F4002060620120DD
:1024E00070BD022084F820002068016821F00101FD
:1024F000016000F02DFA05462068406810F0010FD9
:1025000012D000F025FA401B0A2808D9606A40F46E
:1025100000306062052084F82000012070BD206832
:10252000406810F0010FECD10020606270BD704770
:102530007047704770477047704770472DE9F0410A
:10254000044600F005FA0546DCB1022084F83500A7
:10255000002684F834602068016821F001010160E0
:102560002068006810F0010F13D000F0F1F9401B53
:10257000052809D920206065032084F83500BDE8CE
:10258000F0810120BDE8F0812068006810F0010FA3
:10259000EBD121680868234A1040A3686268D4F828
:1025A00010C01A43E36843EA0C031A4363691A43F1
:1025B000A3691A43E3691A43236A1A431043626A00
:1025C000042A03D1236BE26A1A431043086020688F
:1025D000406920F00701606A40EA010501270428EC
:1025E0000ED1A06A0543E06A50B12046FFF784F996
:1025F00030B14020606584F835700120BDE8F0817D
:10260000206845612046FFF75DF994F85C103F2291
:1026100002FA01F18160666584F835700020BDE83A
:10262000F08100003F8010F070B5044600F090F992
:102630000546B4F1FF3F02D004480078044400F09E
:1026400087F9401BA042FAD370BD0000AC00002007
:1026500010B50446102C11D12048007840F001003C
:102660001E4908701E48007840F001001C4908709F
:102670001C48007858B307F017FD2EE0202C0BD132
:102680001948007840F00100174908701548007893
:10269000E8B107F009FD20E0082C19D113480078B3
:1026A00040F00100114908700846007800F0010070
:1026B000087060B10846007820F0010008700846F4
:1026C000007840F002000870094807F09BFE04E023
:1026D000012C02D101200749087010BD32000020F2
:1026E000330000203500002031000020340000209D
:1026F000FC0300203600002010B504490A6802429D
:1027000002D00860FFF7A4FF10BD0000143C014098
:102710002DE9F84F0022DFF81492DFF814A2DFF859
:1027200014B24FF0010E03274FF00F080EFA02FC0F
:102730000B6803EA0C0363457DD10C7904F00304B4
:10274000012C01D0022C14D18568540007FA04F63C
:10275000B543CE6806FA04F42C438460446824EA46
:102760000C0C0C79C4F30014944044EA0C0CC0F82F
:1027700004C0D1F804C037EA0C0C0CD0C4684FEA8E
:10278000420C07FA0CF5AC438D6805FA0CFC4CEAD8
:10279000040CC0F80CC091F804C00CF0030CBCF1A0
:1027A000020F12D14FEAD20C00EB8C04256A4FEADB
:1027B000427C4FEADC6C08FA0CF6B5430E6906FA67
:1027C0000CFC4CEA050CC4F820C004684FEA420C2B
:1027D00007FA0CF5AC430D7905F0030505FA0CFC7E
:1027E0004CEA040CC0F800C0D1F804C01CF4403F0F
:1027F0007DD0D9F800C04CF4804CC9F800C0D9F89D
:1028000000C00CF4804CCDF800C022F0030C0CF199
:10281000804505F59835D5F808C89407240F08FABF
:1028200004F62CEA0606A0F1804CBCF5003C64D00E
:10283000A0F1804C00E05AE0BCF5013C60D0A0F172
:10284000804CBCF5023C5ED0A0F1804CBCF5033C52
:102850005CD0A0F1804CBCF5043C5AD0A0F1804C77
:10286000BCF5053C58D0A0F1804CBCF5063C56D0D8
:10287000A0F1804CBCF5073C54D04FF0080C0CFA8A
:1028800004FC4CEA060CC5F808C8DAF800C02CEACB
:10289000030C4C6814F4803F01D04CEA030CCAF8D6
:1028A00000C0254CD4F800C02CEA030C4D6815F488
:1028B000003F01D04CEA030CC4F800C0DBF800C0B4
:1028C0002CEA030C4C6814F4801F01D04CEA030C72
:1028D000CBF800C0194CD4F800C02CEA030C4D68AA
:1028E00015F4001F01D04CEA030CC4F800C0521CC0
:1028F000102AFFF41BAFBDE8F88F4FF0000CBEE7C5
:102900004FF0010CBBE74FF0020CB8E74FF0030C9F
:10291000B5E74FF0040CB2E74FF0050CAFE74FF00E
:10292000060CACE74FF0070CA9E700004438024062
:10293000003C0140083C0140043C01400C3C01408B
:10294000002A01D08161704709048161704700004D
:102950000148806870470000AC00002070B5044654
:10296000002C04D094F83D00002510B106E00120B1
:1029700070BD84F83C50204600F0E0FA242084F832
:102980003D002068016821F00101016020680168B4
:1029900041F4004101602068016821F400410160B8
:1029A00000F0C2FC544B6168994203D853498842F5
:1029B00003D304E05249884201D2012070BD51493D
:1029C000B0FBF1F12268D2F804C02CF03F0C4CEAC5
:1029D000010CC2F804C062689A4201D84A1C07E0A0
:1029E0004FF4967251434FF47A72B1FBF2F14A1CE4
:1029F0002168D1F820C02CF03F0C42EA0C020A6298
:102A00006168994210D84900401EB0FBF1F2521C97
:102A1000C2F30B02042A01D2042026E0B0FBF1F03D
:102A2000401CC0F30B0020E0A268002A50D001EB4C
:102A3000C10303EB0113A0F1010CBCFBF3F35B1C1E
:102A400043F480431B051B0D4AD0002A4AD001EBFA
:102A5000C10202EB0111401EB0FBF1F0401CC0F3BB
:102A60000B0040F4804040F400402168CA6922F025
:102A7000FF0222F44F421043C861216AE06901431A
:102A80002068026822F0C00211430160E1682069F9
:102A900001432068826822F0FF0222F403421143BE
:102AA0008160A169606901432068C26822F0FF0269
:102AB0001143C1602068016841F001010160256493
:102AC000202084F83D00256384F83E50002070BD2E
:102AD00001EB4103A0F1010CBCFBF3F35B1CB1E77C
:102AE0000120C2E701EB4101401EB0FBF1F0401CA8
:102AF000C0F30B00B7E70000A086010080841E0031
:102B000000093D0040420F002DE9FF4F83B004460D
:102B10008A469346DDF84490DDF84080129EFFF728
:102B200017FF054694F83D00202803D007B0022087
:102B3000BDE8F08F19230122A0492046009501F03D
:102B400045FE18B107B00220BDE8F08F94F83C00B4
:102B5000012808D0012084F83C002068016811F0A9
:102B6000010F04D007E007B00220BDE8F08F016834
:102B700041F0010101602068016821F400610160F9
:102B8000222084F83D00402084F83E00002727647E
:102B9000C4F82480A4F82A90608D20858848E062DB
:102BA000019500965A4651462046069B01F0CEFC00
:102BB00018B107B00120BDE8F08F208D10B30128B7
:102BC00029D0022835D02068416980690290208D83
:102BD000002800F0E880DFF8EC81208D032800F267
:102BE000B780012834D002284AD03346002241461B
:102BF0002046009501F0EAFD00286CD007B00120C6
:102C0000BDE8F08F2068416981690291016841F453
:102C100000710160DBE72068016821F480610160D8
:102C20002068416981690291016841F40071016085
:102C3000CDE72068016821F48061016020680168A7
:102C400041F4006101602068416980690290BEE73B
:102C50002A463146204601F07AFE18B107B001201D
:102C6000BDE8F08F20680069616A0870606A401CE6
:102C70006062208D401E2085608D401E60858EE044
:102C80003346002241462046009501F09FFD18B1D1
:102C900007B00120BDE8F08F2068016841F40071A1
:102CA000016020680069616A0870606A401C6062A7
:102CB000218D491E2185618D491E61852168096923
:102CC0000170606A401C6062208D401E2085608D0E
:102CD000401E608563E02068016821F48061016026
:102CE00020680069616A0870606A401C6062208D1B
:102CF000401E2085608D401E60853346002241467F
:102D00002046009501F062FD18B107B00120BDE832
:102D1000F08F2068016841F400710160206800694B
:102D2000616A0870606A401C6062218D491E2185BD
:102D3000618D491E6185216809690170606A401CC6
:102D40006062208D401E2085608D401E608526E0DB
:102D50002A463146204601F0FAFD18B107B001209D
:102D6000BDE8F08F20680069616A0870606A401CE5
:102D70006062218D491E2185618D491E6185226811
:102D8000516911F0040F0AD011690170606A401C8A
:102D90006062208D401E2085608D401E6085208DE4
:102DA00000287FF41AAF202084F83D0084F83E709C
:102DB00084F83C7007B00020BDE8F08F02001000DE
:102DC0000000FFFF040001002DE9FF4F83B004461F
:102DD0008A469346DDF84490DDF84080129EFFF766
:102DE000B7FD054694F83D00202803D007B0022027
:102DF000BDE8F08F192301224E492046009501F0CD
:102E0000E5FC18B107B00220BDE8F08F94F83C0053
:102E1000012808D0012084F83C002068016811F0E6
:102E2000010F04D007E007B00220BDE8F08F016871
:102E300041F0010101602068016821F40061016036
:102E4000212084F83D00402084F83E0000272764BC
:102E5000C4F82480A4F82A90608D20853648E0626A
:102E6000019500965A4651462046069B01F018FCF3
:102E700018B107B00120BDE8F08F208D002836D0B2
:102E80002A463146204601F0A0FD58B1206C0428A6
:102E900004D12068016841F40071016007B001208D
:102EA000BDE8F08F606A216800780861606A00F10F
:102EB000010CC4F824C0208D401E80B22085618D95
:102EC000491E61852368596911F0040F0CD058B16F
:102ED0009CF800001861606A401C6062208D401EF2
:102EE0002085608D401E6085208D0028C8D12A462F
:102EF0003146204601F03CFC58B1206C042804D136
:102F00002068016841F40071016007B00120BDE84C
:102F1000F08F2068016841F400710160202084F87E
:102F20003D0084F83E7084F83C7007B00020BDE896
:102F3000F08F0000020010000000FFFF10B586B007
:102F40000446142101A8FDF77CFA2A49206888422A
:102F50004DD100BF002000902748006840F00400D9
:102F6000254908600846006800F00400009000BF92
:102F700000BF00BF002000900846006840F001003C
:102F800008600846006800F00100009000BF00BF24
:102F90004815019012200290012003900320049014
:102FA0000420059001A91548FFF7B2FB4FF480708B
:102FB000019012200290012003900320049004202D
:102FC000059001A90E48FFF7A3FB00BF0020009069
:102FD00009481030006840F40000074910310860CB
:102FE0000846006800F40000009000BF00BF06B073
:102FF00010BD0000005C0040303802400008024074
:1030000000000240024881680278114481607047E4
:10301000AC00002010B50B48016841F4007101605C
:10302000016841F480610160016841F480710160D0
:10303000032000F091F80F2000F006F800F026F8C9
:10304000002010BD003C024070B504460D4D4FF409
:103050007A712878B1FBF0F00B490968B1FBF0F008
:1030600000F0F2FD08B1012070BD102C07D2002243
:103070002146501E00F03CF86C60002070BD01201D
:1030800070BD0000AC0000200400002008B500BFA7
:10309000002000900E48006840F480400C49086011
:1030A0000846006800F48040009000BF00BF00BFE9
:1030B00000200090081F006840F08050091F086041
:1030C0000846006800F08050009000BF00BF08BDB7
:1030D0004438024000280ADB00F01F01012202FAF6
:1030E00001F14009800000F1E020C0F800117047B4
:1030F00010B4184B1B68C3F30223C3F1070CBCF1D7
:10310000040F01D94FF0040C1C1D072C01D2002321
:1031100000E0DB1E012404FA0CFCACF1010C0CEA0B
:103120000101994004FA03F35B1E1A401143002881
:1031300006DB00F1E020090180F8001410BC7047A4
:1031400000F00F0000F1E020090180F8141D10BC10
:10315000704700000CED00E000F00700064A11681F
:103160004FF6FF03194041EA002040F0FD7040F0A7
:1031700080601060704700000CED00E0BFF34F8FDF
:1031800005480168054A01F4E06111430160BFF39D
:103190004F8F00BFFDE700000CED00E00400FA05D2
:1031A0002DE9F04704460D46002C13D0DFF854916A
:1031B000D9F80000EFB200F00700A8420DD289F85C
:1031C0000070D9F8000000F00700A84205D00120E7
:1031D000BDE8F0870120BDE8F08720684A4E10F076
:1031E000020F14D010F0040F03D0306840F4E05008
:1031F0003060207810F0080F03D0306840F4604051
:1032000030603068A16820F0F0000843306020781A
:1032100010F0010F3ED060683C49012808D0022818
:103220000DD003280BD0096811F0020F28D00AE056
:10323000096811F4003F06D10120BDE8F087096854
:1032400011F0007F19D0316821F00301084330608C
:10325000FFF77EFB80463068616800F00C00B0EB41
:10326000810F17D041F2883AFFF772FBA0EB0800FC
:10327000504508D90320BDE8F0870120BDE8F0875C
:103280000120BDE8F0873068616800F00C00B0EB09
:10329000810FE9D1D9F8000000F00700A8420AD94F
:1032A00089F80070D9F8000000F00700A84202D0A9
:1032B0000120BDE8F087207810F0040F05D03068B9
:1032C000E16820F4E05008433060207810F0080FE7
:1032D00006D03068216920F4604040EAC1003060C7
:1032E00000F032F831680A4AC1F30311515CC8405A
:1032F0000849086008480068FFF7A6FE0020BDE8FE
:10330000F0870000003C02400838024000380240CC
:103310003CBF000804000020B00000200148006805
:10332000704700000400002000B5FFF7F7FF0449D4
:103330000968044AC1F38221515CC84000BD000005
:10334000083802404CBF000810B51748006810F05C
:103350000C01164816D0164B042912D0082911D199
:10336000144C216801F03F02216811F4800F0AD04B
:103370002068C0F38810A0FB03010023FCF7EAFFDC
:1033800009E0184610BD21680023C1F38811A1FB94
:103390000001FCF7DFFF2168C1F30141491C49002E
:1033A000B0FBF1F010BD0000083802400024F4002A
:1033B000001BB700043802402DE9F84F0446002CEA
:1033C00012D02078FB4E10F0010FA6F1040563D057
:1033D000301D016801F00C0104290CD0006800F0D8
:1033E0000C00082803D010E00120BDE8F88F3068F9
:1033F00010F4800F09D0286810F4003F4CD06068AA
:10340000002849D10120BDE8F88F6068B0F5803F01
:1034100014D0B0F5A02F16D0286820F48030286092
:10342000286820F480202860606810B3FFF790FAC5
:103430000746286810F4003F0ED02DE0286840F4BD
:1034400080302860F0E7286840F4802028602868F1
:1034500040F480302860E7E7FFF77AFAC01B642861
:1034600002D90320BDE8F88F286810F4003FF3D09C
:1034700012E0FFF76DFA0746286810F4003F0BD002
:10348000FFF766FAC01B642802D90320BDE8F88F55
:10349000286810F4003FF3D12078C74F10F0020FD6
:1034A0004FF0000957D0C548016811F00C0F14D037
:1034B000006800F00C00082803D1306810F4800F79
:1034C0000BD0E06880B301203860FFF741FA8046F6
:1034D000286810F0020F12D01EE0286810F0020FCA
:1034E00005D0E068012802D00120BDE8F88F2868E7
:1034F000216920F0F80040EAC10028602BE0FFF7C6
:1035000027FAA0EB0800022802D90320BDE8F88FB3
:10351000286810F0020FF2D02868216920F0F80026
:1035200040EAC100286016E0FFE7C7F80090FFF707
:103530000FFA8046286810F0020F0CD0FFF708FA47
:10354000A0EB0800022802D90320BDE8F88F286804
:1035500010F0020FF2D1207810F0080F35D0984803
:10356000DFF860A26169C1B101210160FFF7F0F9E4
:103570008046DAF8000010F0020F26D1FFF7E8F9D4
:10358000A0EB0800022802D90320BDE8F88FDAF882
:10359000000010F0020FF1D017E0C0F80090FFF724
:1035A000D7F98046DAF8000010F0020F0DD0FFF7CF
:1035B000CFF9A0EB0800022802D90320BDE8F88F5C
:1035C000DAF8000010F0020FF1D1207810F0040FAB
:1035D00071D04FF000087C48006810F0805F0AD17D
:1035E0007948016841F080510160006800F0805026
:1035F00000904FF00108DFF8D4B1DBF8000010F4C0
:10360000807F1BD1DBF8000040F48070CBF8000015
:10361000FFF79EF98246DBF8000010F4807F0DD1A1
:10362000FFF796F9A0EB0A00022802D90320BDE8B3
:10363000F88FDBF8000010F4807FF1D0A068DFF88D
:1036400090B1012818D005281DD0DBF8000020F02B
:103650000100CBF80000DBF8000020F00400CBF8FC
:103660000000A06840B3FFF773F98246DBF8000062
:1036700010F0020F14D03EE0DBF8000040F0010033
:10368000CBF80000EDE7DBF8000040F00400CBF8D9
:103690000000DBF8000040F00100CBF80000E0E79C
:1036A000FFF756F9A0EB0A0141F28830814204D9B4
:1036B0000320BDE8F88F26E005E0DBF8000010F0FD
:1036C000020FEDD017E0FFF743F98246DBF8000068
:1036D00010F0020F0FD0FFF73BF9A0EB0A0141F207
:1036E0008830814202D90320BDE8F88FDBF8000062
:1036F00010F0020FEFD1B8F1010F04D13248016888
:1037000021F080510160A069F0B32C4909684FF0A5
:10371000FF3801F00C01082966D0022810D0C7F844
:103720006090FFF715F90446286810F0007F2BD051
:10373000FFF70EF9001B022851D90320BDE8F88FCE
:10374000C7F86090FFF704F98146286810F0007F01
:103750000CD0FFF7FDF8A0EB0900022802D90320E6
:10376000BDE8F88F286810F0007FF2D1216AE06987
:10377000A26A0843616A08EB5202890141EA0241E8
:10378000084394F82C1000E055E040EA01603060F6
:1037900001203866FFF7DCF80446286810F0007F47
:1037A00049D1FFF7D5F8001B022813D90320BDE843
:1037B000F88F0000043802400000474208380240F9
:1037C000800E47427438024040380240007000408A
:1037D00070380240286810F0007FE2D02BE02868A3
:1037E00010F0007FA4D126E0012822D03068E269E1
:1037F00000F4800191421AD1226A00F03F01914207
:1038000015D147F6C071626A0140B1EB821F0ED13B
:10381000A26A00F4403108EB5202B1EB024F06D12C
:1038200094F82C1000F07060B0EB016F03D0012011
:10383000BDE70120BBE70020B9E770B50446002CC6
:1038400009D0606A002540B125616561A56294F8E0
:10385000510040B10CE0012070BD6068B0F5827F7E
:10386000F4D0E561F2E784F85050204600F044F8C7
:10387000022084F851002068016821F040010160B5
:10388000A088218900F4827001F404410843A189D1
:1038900001F400610843217C01F002010843217D0D
:1038A00001F001010843218B01F400710843217FDD
:1038B00001F03801084394F8201001F0800108431A
:1038C000218D01F40051084321680860A16904209A
:1038D00000EA114094F8241001F01001014320681F
:1038E00041602068C16921F40061C1616565012002
:1038F00084F85100002070BD10B586B00446142134
:1039000001A8FCF79EFD4B49206888427ED100BF8C
:10391000002000904848006840F480504649086004
:103920000846006800F48050009000BF00BF00BF50
:103930000020009040481438006840F002003E49E2
:10394000143908600846006800F00200009000BFCB
:1039500000BF00BF002000900846006840F0010052
:1039600008600846006800F00100009000BF00BF3A
:10397000182001900220029001200390032004905F
:103980000520059001A92D48FEF7C2FE8020019078
:10399000022002900120039003200490052005904E
:1039A00001A92748FEF7B4FE2648274908604FF0D2
:1039B000C0604860002124488160C1604FF480618C
:1039C0000161002141618161C1614FF440310162B7
:1039D00000214162FEF7B2FD08B1FDF7E1FF00BF33
:1039E0001948E064846300BF16481830174908601E
:1039F0004FF0C06048604021144881600021C160E0
:103A00004FF4806101610021416100E010E08161BB
:103A1000C1614FF40031016200214162FEF78EFD69
:103A200008B1FDF7BDFF00BF0848A064846300BF74
:103A300006B010BD0030014044380240000402408E
:103A40000000024040640240C40100202402002023
:103A50002DE9F84F04460A9E8A4693461F460125E3
:103A60004FF0000894F8500001280ED0012084F88F
:103A70005000FEF76DFF814694F8510061680128FF
:103A80000ED0B1F5827F07D102E00220BDE8F88FA9
:103A9000A16809B9042803D04FF0020800F0CBB8A0
:103AA000BAF1000F1DD0BBF1000F1AD0380018D0AA
:103AB00094F85100042802D0052084F85100002019
:103AC0006065C4F838B0E787A787C4F830A0E786F8
:103AD000A786206460642068016811F0400F03D05D
:103AE00006E04FF00108A6E0016841F040010160E6
:103AF000E068B0F5006F05D06068002848D0012F5D
:103B000046D07EE0606808B1012F3AD1206B216871
:103B10000088C860206B801C2063E08E401EE08619
:103B20002FE02068816811F0020F0DD0E18E59B1AD
:103B3000012D09D1216B0988C160206B801C206395
:103B4000E08E401EE08600252068816811F0010F9C
:103B50000BD0E18F49B1C068A16B0880A06B801CBD
:103B6000A063E08F401EE0870125FEF7F1FEA0EB89
:103B70000900B04205D3B6F1FF3F02D04FF0030871
:103B800059E0E08E0028CCD1E08F0028C9D13EE07A
:103B9000206B216800780873206B401C2063E08E46
:103BA000401EE0862DE02068816811F0020F0DD0E4
:103BB000E18E59B1012D09D1216B09780173206B78
:103BC000401C2063E08E401EE0860025206881684E
:103BD00011F0010F0BD0E18F49B1C068A16B0870E3
:103BE000A06B401CA063E08F401EE0870125FEF71C
:103BF000AFFEA0EB0900B04202D3B6F1FF3F11D1F6
:103C000086B1E08E0028CED1E08F0028CBD14A4685
:103C10003146204604F0F6F838B14FF00108202074
:103C2000606508E04FF0030805E0A06818B9206857
:103C3000C16880680090012084F85100002084F859
:103C400050004046BDE8F88F401EB0F1807F01D3A0
:103C5000012070474FF0E0214861044AF0201070C5
:103C600000208861072008610020704723ED00E0F4
:103C70007047704730B490F83C20012A44D00124AA
:103C800080F83C40022280F83D200268D2F804C04F
:103C900093682CF0700C0D6845EA0C0CC2F804C057
:103CA0000268A2F1804CBCF5803C20D0B2F1804F7C
:103CB0001DD0A2F1804CBCF5806C18D0A2F1804CD4
:103CC000BCF5006C13D0A2F1804CBCF5406C0ED05A
:103CD000A2F1804CBCF5823C09D0A2F1804CBCF52D
:103CE000A03C04D0A2F1804CBCF5C05C04D123F010
:103CF000800349681943916080F83D40002180F8B5
:103D00003C1030BC0020704730BC0220704710B51A
:103D10000446002C03D094F83D0010B107E00120C8
:103D200010BD002084F83C00204600F01FF802205F
:103D300084F83D00211D206804F0A8F9012084F8D2
:103D4000460084F83E0084F83F0084F8400084F880
:103D5000410084F8420084F8430084F8440084F869
:103D6000450084F83D00002010BD000038B5044631
:103D700036492068884218D100BF0020009034489E
:103D8000006840F00100324908600846006800F011
:103D90000100009000BF00BF002211461920FFF76C
:103DA000A7F91920FFF796F94EE02A4920688842C2
:103DB00011D100BF002000902548001F006840F08E
:103DC00008002349091F08600846006800F0080041
:103DD000009000BF38E020492068884218D100BF19
:103DE000002000901A48006840F00200184908605E
:103DF0000846006800F00200009000BF00BF0022EB
:103E000011462C20FFF774F92C20FFF763F91BE013
:103E100012492068884217D100BF002000900C484A
:103E2000006840F400300A4908600846006800F461
:103E30000030009000BF00BF002211461920FFF79C
:103E400057F91920FFF746F938BD0000000001407E
:103E500044380240000C004000040140004401408E
:103E600090F83D10012901D001207047022180F80F
:103E70003D100068A0F18041B1F5803126D0B0F14D
:103E8000804F23D0A0F18041B1F580611ED0A0F118
:103E90008041B1F5006119D0A0F18041B1F54061D8
:103EA00014D0A0F18041B1F582310FD0A0F1804152
:103EB000B1F5A0310AD0A0F18041B1F5C05105D0D3
:103EC000016841F00101016000207047816801F044
:103ED00007010629F8D0016841F001010160F3E70C
:103EE00090F83D10012901D001207047022180F88F
:103EF0003D100168CA6842F00102CA600068A0F182
:103F00008041B1F5803126D0B0F1804F23D0A0F1AF
:103F10008041B1F580611ED0A0F18041B1F5006112
:103F200019D0A0F18041B1F5406114D0A0F18041D9
:103F3000B1F582310FD0A0F18041B1F5A0310AD0A6
:103F4000A0F18041B1F5C05105D0016841F00101F7
:103F5000016000207047816801F007010629F8D050
:103F6000016841F001010160F3E770B504460025E6
:103F700094F83C00012818D0012684F83C60022007
:103F800084F83D002068826822F0770222F47F42A4
:103F900082600868502839D00EDC202854D006DC16
:103FA000002851D0102811D14EE0022070BD3028D9
:103FB0004AD040280AD13DE0602831D070280DD089
:103FC000B0F5805F03D0B0F5005F13D0012584F811
:103FD0003D60002084F83C00284670BDCB684A68EC
:103FE0008968206804F0C7F82068816841F077018B
:103FF0008160ECE7CB684A688968206804F0BBF808
:104000002068816841F480418160E0E7CA684968BE
:10401000206804F09FF95021206804F0B7F8D6E733
:10402000CA684968206804F0A8F96021206804F093
:10403000ADF8CCE7CA684968206804F08BF94021E4
:10404000206804F0A3F8C2E722680146104604F095
:104050009DF8BCE7704770B50446206801694FF0D1
:10406000000511F0020F17D0C16811F0020F13D034
:10407000E91E0161012020772068806910F0030F9C
:1040800003D02046FFF7E6FF05E0204600F010F9D8
:10409000204600F0A9F925772068016911F0040F86
:1040A00018D0C16811F0040F14D06FF00401016141
:1040B000022020772068806910F4407F03D02046DA
:1040C000FFF7C8FF05E0204600F0F2F8204600F0B8
:1040D0008BF925772068016911F0080F18D0C168A5
:1040E00011F0080F14D06FF008010161042020774F
:1040F0002068C06910F0030F03D02046FFF7AAFF25
:1041000005E0204600F0D4F8204600F06DF9257750
:104110002068016911F0100F18D0C16811F0100F5C
:1041200014D06FF010010161082020772068C06969
:1041300010F4407F03D02046FFF78CFF05E02046B7
:1041400000F0B6F8204600F04FF9257720680169A5
:1041500011F0010F09D0C16811F0010F05D06FF007
:1041600001010161204600F0AFF92068016911F0FA
:10417000800F09D0C16811F0800F05D06FF0800169
:1041800001612046FFF774FD2068016911F0400FBE
:1041900009D0C16811F0400F05D06FF040010161F6
:1041A000204600F0B7F92068016911F0200F0BD00C
:1041B000C16811F0200F07D06FF020010161204687
:1041C000BDE87040FFF755BD70BD000010B586B06A
:1041D0000446142101A8FCF734F92E4920688842CE
:1041E0002DD100BF002000902B48006840F08000D7
:1041F000294908600846006800F08000009000BF70
:1042000000BF4FF4E0500190022002900120039083
:1042100002200490059001A92048FEF779FA204871
:10422000FFF71EFE00211E4800F0E0F804211C48A4
:1042300000F0DCF808211A4800F0D8F828E0194905
:104240002068884224D100BF0020009012480068F6
:1042500040F02000104908600846006800F0200087
:10426000009000BF00BF402001900220029001207A
:104270000390022004900320059001A90A48FEF74C
:1042800047FA0A48FFF7ECFD0021084800F0AEF8B5
:1042900006B010BD000C004030380240001C024047
:1042A000CC02002000440140001402405C030020C6
:1042B000704770B504460D46002694F83C0001286E
:1042C0000FD0012084F83C006AB1042A1FD0082ACC
:1042D00032D00C2A44D00126002084F83C0030461D
:1042E00070BD022070BD2946206803F057FF20688A
:1042F000816941F0080181612068816921F0040130
:104300008161206881692A6911438161E4E7294656
:10431000206803F07BFF2068816941F400618161BE
:104320002068816921F480618161206881692A693E
:1043300041EA02218161CFE72946206803F0A2FF0C
:104340002068C16941F00801C1612068C16921F09C
:104350000401C1612068C1692A691143C161BBE7D9
:104360002946206803F0CAFF2068C16941F4006152
:10437000C1612068C16921F48061C1612068C1699F
:104380002A6941EA0221C161A6E710B50446002C62
:1043900003D094F83D0010B107E0012010BD0020CB
:1043A00084F83C00204600F01EF8022084F83D000E
:1043B000211D206803F06AFE012084F8460084F87D
:1043C0003E0084F83F0084F8400084F8410084F8FF
:1043D000420084F8430084F8440084F8450084F8DF
:1043E0003D00002010BD70477047000010B5044626
:1043F000002909D004290AD008290BD094F84100DB
:1044000001280AD0012010BD94F83E00F8E794F886
:104410003F00F5E794F84000F2E70220D9B3042901
:1044200047D0082948D084F841000122206803F0D1
:1044300093FE234A20682349904201D0884203D149
:10444000436C43F4004343642068904224D0B0F1AD
:10445000804F21D0A0F18042B2F580621CD0A0F143
:104460008042B2F5006217D0A0F18042B2F54062FE
:1044700012D0884210D0A0F18041B1F5A0310BD00C
:10448000A0F18041B1F5C05106D0016841F00101B1
:104490000160002010BD09E0816801F007010629D4
:1044A000F7D0016841F001010160F2E784F83E00B5
:1044B000BBE784F83F00B8E784F84000B5E70000A8
:1044C000000001400004014010B504460D4884423C
:1044D00001D105F0BFF90C48844212D1B7EE000AB1
:1044E0000A4880ED4A0A0A480078401C40B2084950
:1044F000087008460078142803D10020087006F0E0
:1045000033F810BD84020020140300207809002035
:1045100052000020704700BFFEE701684A6912F4AC
:10452000806F11D06FF480624A6100210163202204
:1045300080F83D2080F83E10026C42F004020264D4
:1045400080F83C1001207047002070472DE9F84F9B
:104550000446DDF828A00B9D0F4690461E462068B5
:10456000016841F4806101602068016841F4807154
:104570000160534600224FF001112046009500F0E3
:1045800025F94FF4007948B12068006810F4807F65
:1045900001D0C4F840900320BDE8F88F216807F0EF
:1045A000FE000861DFF8F4B02B465246594620461B
:1045B00000F066F910B10120BDE8F88F206841696C
:1045C000806900902A465146204600F0FEF950B11D
:1045D000206C042804D12068016841F40071016056
:1045E0000120BDE8F88F304608F0FF0601280DD005
:1045F00021684FEA182008612A465146204600F0FB
:10460000E4F970B1206C042803D007E0206806614B
:1046100009E02068016841F4007101600120BDE8F3
:10462000F88F206806612A465146204600F0CDF9F1
:1046300050B1206C042804D12068016841F4007155
:1046400001600120BDE8F88F2068016841F48071A5
:104650000160534600224FF001112046009500F002
:10466000B5F848B12068006810F4807F01D0C4F824
:1046700040900320BDE8F88F2168F8B240F00100B7
:1046800008612B4652465946204600F0F9F810B111
:104690000120BDE8F88F0020BDE8F88F020001007E
:1046A0002DE9F8430446DDF82090099F0D46164693
:1046B00098462068016841F4807101604B460022F1
:1046C0004FF001112046009700F080F850B12068AB
:1046D000006810F4807F02D04FF400702064032043
:1046E000BDE8F883216805F0FE0008613B464A46B4
:1046F0001E49204600F0C4F810B10120BDE8F8833F
:1047000020684169806900903A464946204600F099
:104710005CF950B1206C042804D12068016841F490
:10472000007101600120BDE8F883F5B2B8F1010F16
:104730000CD02168300A08613A464946204600F00C
:1047400044F970B1206C042803D007E020680561AB
:1047500009E02068016841F4007101600120BDE8B2
:10476000F883206805610020BDE8F883020001009D
:1047700070B504460D4616462068406910F0040FD7
:1047800013D12046FFF7C9FE08B1012070BDB5F175
:10479000FF3F05D0FEF7DCF8801BA84207D835B1F3
:1047A0002068406910F0040FEBD0002070BD00209D
:1047B0002063202184F83D1084F83E00216C41F0F4
:1047C0002001216484F83C00012070BD2DE9F047F0
:1047D0000446DDF820900D4617461E46C5F30748EF
:1047E0002068B8F1010F22D0806925EA000000049A
:1047F000000C26D00020B84216D1B6F1FF3F06D0FB
:10480000FEF7A6F8A0EB0900B0421CD8DEB1B8F163
:10481000010F28D02068806925EA00000004000C00
:104820002CD00020B842E8D00020BDE8F0874069D5
:1048300025EA00000004000C01D00020DBE7012085
:10484000D9E70120D7E700202063202184F83D101C
:1048500084F83E00216C41F02001216484F83C0082
:104860000120BDE8F0872068406925EA00000004C7
:10487000000C01D00020D5E70120D3E70120D1E7CB
:104880002DE9F04704460D4616461F46C5F3074876
:104890002068B8F1010F26D0806925EA00000004E5
:1048A000000C3AD04FF000094FF0200A2068406910
:1048B00010F4806F1ED02068016841F4007101601F
:1048C00021686FF480604861C4F8309084F83DA09E
:1048D00084F83E90206C40F00400206484F83C9002
:1048E0000120BDE8F087406925EA00000004000CC3
:1048F00013D0D7E7B6F1FF3F05D0FEF729F8C01B6C
:10490000B0420DD866B1B8F1010F18D020688069A7
:1049100025EA00000004000CC8D10020BDE8F087A3
:10492000C4F8309084F83DA084F83E90206C40F0AC
:104930002000206484F83C900120BDE8F0872068C6
:10494000406925EA00000004000CAFD1E5E72DE93D
:10495000F04104460D4616462068406910F0400FAD
:1049600022D100274FF020082068406910F0100F76
:104970000FD021686FF010004861276384F83D80F4
:1049800084F83E70206C206484F83C700120BDE8FF
:10499000F081FDF7DDFF801BA84208D83DB12068FB
:1049A000406910F0400FDFD00020BDE8F0812763A0
:1049B00084F83D8084F83E70206C40F02000206434
:1049C00084F83C700120BDE8F08170B504460D46C6
:1049D00016462068406910F0800F13D12046FFF77B
:1049E0009CFD08B1012070BDB5F1FF3F05D0FDF77A
:1049F000AFFF801BA84207D835B12068406910F08E
:104A0000800FEBD0002070BD00202063202184F8AF
:104A10003D1084F83E00216C41F02001216484F8AF
:104A20003C00012070BD000010B5634800780128EB
:104A30007DD16248007800F0080048B15F480078F6
:104A400020F008005D4908705D495E48FCF7D2F827
:104A50005D48007800F0040060B15B48007820F009
:104A6000040059490870564A0C32A2F11C015748FB
:104A7000FCF76AF85648007800F0040090B15448FA
:104A8000007820F00400524908704D49091F514830
:104A9000FCF7ECF94A481438D0ED040AB0EE600A8D
:104AA00005F0BCFB4C4890ED000A4C4880ED000A34
:104AB0004B4890ED000A484880ED000A90ED000A4E
:104AC0004848D0ED000A20EE200A4448D0ED000A04
:104AD000444890ED011A00EE810A39481438D0EDAF
:104AE000010A404890ED021A00EE810A3C4880ED30
:104AF000000A394890ED010A384880ED010A38482B
:104B000090ED010A344880ED010A90ED010A354824
:104B1000D0ED000A20EE200A3048D0ED010A3148DD
:104B200090ED011A00EE810A2548143800E041E0BA
:104B3000D0ED020A2B4890ED021A00EE810A2848B7
:104B400080ED010A244890ED020A244880ED020A13
:104B5000234890ED020A204880ED020A90ED020AF7
:104B60002048D0ED000A20EE200A1C48D0ED020AB1
:104B70001C4890ED011A00EE810A11481438D0ED5E
:104B8000030A184890ED021A00EE810A144880EDDD
:104B9000020A154B02460A499FED140A1448FBF716
:104BA0000BFF144B1A1F111F114805F0FBF90020D1
:104BB0000149087010BD00003600002031000020BF
:104BC000E80300201100002032000020CA0300206A
:104BD000330000202B000020B0030020A40300209D
:104BE000BC03002054BF0008FC0300206F12833A6E
:104BF000500400206804002010B50720FDF714FDC4
:104C000002E06420FDF710FDFCF728F80028F8D139
:104C100002E06420FDF708FD05F0AAFB0028F8D1AA
:104C2000124AA2F10C01101DFCF732F8DFED100A58
:104C30009FED100A104A0021104800F053FC104A62
:104C40000A490C390F48FBF74BFD10210E48C16192
:104C5000FEF7F3FD08B1FCF7A3FE08220B490C4850
:104C600003F010F801200B49087010BDE403002088
:104C70000080894500A08C4560BF00080804002022
:104C8000FC030020500400206C01002010000020D4
:104C9000180000203500002080ED0D0A80ED011A7B
:104CA000C0ED020AC0ED122A80ED112AC0ED0E1AE5
:104CB0009FED0E3A80ED153A9FED0C3A80ED183AD3
:104CC0009FED0A3A80ED133A9FED083A80ED163ACF
:104CD0009FED063A80ED033A9FED043A80ED043AE9
:104CE0009FED033A80ED003A70470000000000009D
:104CF0006F12033BF0EE401A90ED030A80ED020ABA
:104D0000C0ED030A90ED010A80ED000AB0EE002A22
:104D100082EE210A31EE400A90ED002A20EE022AAE
:104D2000F0EE002A82EEA10A70EE012A82EE220A3B
:104D3000F0EE002A82EEA12A72EE012A90ED032AFB
:104D400090ED023A32EE033A83EE222A12EE010A85
:104D500080ED010A90ED010A70470000F0EE401A64
:104D6000C0ED021A80ED031AC0ED040A9FED0F0A90
:104D700080ED050A90ED020A90ED032A30EE420A1A
:104D800090ED002AB1EE422A20EE020A90ED042AAC
:104D9000D0ED052A32EE622AD0ED012A02EEC20AD7
:104DA00080ED060A90ED060A704700000000000042
:104DB00091ED000A80ED000A91ED010A80ED010AF3
:104DC0007047000010B50E480E4908600320486087
:104DD00000210C488160C1604FF4102101614FF443
:104DE000001141610021017641768176C17601771B
:104DF0004177FDF7D2F808B1FCF7D2FD10BD0000F5
:104E000000640040C800002010B50E480E4908603C
:104E10000320486000210C488160C1604FF41021DC
:104E200001614FF4001141610021017641768176E4
:104E3000C17601774177FDF7B0F808B1FCF7B0FD16
:104E400010BD000000680040F000002008B500BF61
:104E5000002000900E48006840F480000C49086073
:104E60000846006800F48000009000BF00BF0022E8
:104E700005213A20FEF73CF93A20FEF72BF90022F3
:104E800005213B20FEF734F93B20FEF723F908BD4E
:104E90003038024000B587B0142102A8FBF7D1FAE0
:104EA00000BF002001906648006840F0020064499D
:104EB00008600846006800F00200019000BF00BFD3
:104EC00000BF002001900846006840F00100086023
:104ED0000846006800F00100019000BF00BF00BF5D
:104EE000002001900846006840F00800086008466D
:104EF000006800F00800019000BF00BF00BF002064
:104F000001900846006840F0040008600846006808
:104F100000F00400019000BF00BF00BF002001901E
:104F20000846006840F0800008600846006800F00D
:104F30008000019000BF00BF00BF00200190084624
:104F4000006840F0400008600846006800F040003B
:104F5000019000BF00BF00BF00200190084600681C
:104F600040F0200008600846006800F02000019032
:104F700000BF00BF012240213248FDF7E1FC0122C1
:104F800010213148FDF7DCFC012211462F48FDF7C6
:104F9000D7FC40200290012003900490059002A9C4
:104FA0002848FDF7B5FB092002904FF40410039048
:104FB0000120049002A92348FDF7AAFB10200290CB
:104FC0000120039004900220059002A91E48FDF7DD
:104FD0009FFB302002904FF40410039001200490B6
:104FE00002A91B48FDF794FB012002900390049056
:104FF0000220059002A91548FDF78AFB0022062130
:105000000846FEF775F80620FEF764F80022052131
:105010000920FEF76DF80920FEF75CF80022052153
:105020000A20FEF765F80A20FEF754F80022052151
:105030001720FEF75DF81720FEF74CF807B000BD0B
:1050400030380240001802400000024000040240D4
:105050000008024010B50B480B4908600B48486037
:10506000002109488160C1604FF480410161002145
:1050700041618161C1610162FDF770FC08B1FCF71B
:105080008FFC10BD005C004018010020801A060053
:1050900010B50F480F4908604FF482704860002136
:1050A0000C488160C1600221016101214161490216
:1050B00081613821C16100210162416281620A215E
:1050C000C162FEF7BAFB08B1FCF76AFC10BD000034
:1050D000003001406C01002000B587B01C216846FB
:1050E000FBF7AFF915481649086000204860002119
:1050F0001348816041F28731C16000210161816103
:10510000FEF705FE08B1FCF74BFC0D48FFF73DF933
:1051100008B1FCF745FC602000900020019002904F
:105120000490002269460648FFF7C3F808B1FCF76F
:1051300037FC0348FFF74AF807B000BD00440140C0
:105140005C03002000B587B0002003900490059018
:1051500006900190029016481649086042F2D0006D
:1051600048600021134881606421C1600021016111
:1051700041618161FEF7CBFD08B1FCF711FC4FF4F2
:105180008050039003A90B48FEF7EFFE08B1FCF72F
:1051900007FC00200190029001A90648FEF76AFD75
:1051A00008B1FCF7FDFB0348FEF75AFE07B000BD4F
:1051B000000001408402002000B58DB0002009905D
:1051C0000A900B900C90079008901C216846FBF702
:1051D00038F92848284908600020486000212648FE
:1051E00081604FF6FF71C160002101618161FEF7AE
:1051F0008EFD08B1FCF7D4FB4FF48050099009A94B
:105200001D48FEF7B2FE08B1FCF7CAFB1A48FFF7CB
:10521000BCF808B1FCF7C4FB00200790089007A970
:105220001548FEF727FD08B1FCF7BAFB6020009097
:105230000020019002900490002269460E48FFF77A
:1052400038F808B1FCF7ACFB042269460A48FFF7BE
:1052500030F808B1FCF7A4FB082269460648FFF7BE
:1052600028F808B1FCF79CFB0348FEF7AFFF0DB030
:1052700000BD0000000C0040CC02002000B587B04B
:10528000002003900490059006900190029015482C
:1052900015490860A720486000211348816040F24A
:1052A000E731C1600021016141618161FEF72FFD9D
:1052B00008B1FCF775FB4FF48050039003A90A482E
:1052C000FEF753FE08B1FCF76BFB00200190029043
:1052D00001A90548FEF7CEFC08B1FCF761FB07B059
:1052E00000BD0000000401401403002000BFFEE7E1
:1052F00000BFFEE7B0EE401A10B99FED790A704783
:1053000090ED100A80ED110A90ED0F0A80ED100A61
:10531000C0ED060A80ED071A30EEC10A80ED0F0AD3
:105320000178002975D190ED010AD0ED0F1A20EE19
:10533000210A80ED090A90ED0A0AD0ED021A90EDDB
:105340000F2A01EE820A80ED0A0A90ED0D0A80ED27
:105350000E0A90ED0C0A80ED0D0A90ED0F0AD0EDCB
:10536000101A30EE610A80ED0C0A90ED030AD0EDC0
:105370000C1A20EE210A80ED0B0A90ED0A0AD0EDFE
:10538000051AB4EEE10AF1EE10FA04DD90ED050A1B
:1053900080ED0A0A10E090ED0A0AD0ED051AF1EE50
:1053A000611AB4EEE10AF1EE10FA05D290ED050AA9
:1053B000B1EE400A80ED0A0A90ED090AD0ED0A1A12
:1053C00030EE210AD0ED0B1A30EE210A80ED080AEA
:1053D00090ED080AD0ED041AB4EEE10AF1EE10FAED
:1053E00004DD90ED040A80ED080A76E090ED080AED
:1053F000D0ED041AF1EE611AB4EEE10AF1EE10FA02
:105400006BD290ED040AB1EE400A80ED080A64E028
:10541000FFE70178012960D190ED0F0AD0ED101A55
:1054200030EE610AD0ED011A20EE210A80ED090A62
:1054300090ED020AD0ED0F1A20EE210A80ED0A0A43
:1054400090ED0D0A80ED0E0A90ED0C0A80ED0D0A2C
:1054500090ED0F0AD0ED101AB0EE002A02EE610AAC
:10546000D0ED111A30EE210A80ED0C0A90ED030AFE
:10547000D0ED0C1A20EE210A80ED0B0A90ED090AFE
:10548000D0ED0A1A30EE210AD0ED0B1A30EE210AC7
:10549000D0ED081A30EE210A80ED080A90ED080AD6
:1054A000D0ED041AB4EEE10AF1EE10FA04DD90ED4D
:1054B000040A80ED080A10E090ED080AD0ED041A05
:1054C000F1EE611AB4EEE10AF1EE10FA05D290EDB8
:1054D000040AB1EE400A80ED080A90ED080A0EE7D2
:1054E0000000000000B102B97047017092ED001A8F
:1054F00080ED011A92ED011A80ED021A92ED021A66
:1055000080ED031A80ED040AC0ED050A9FED0C1A28
:1055100080ED0E1A80ED0D1A80ED0C1A9FED081A21
:1055200080ED081A80ED0B1A80ED0A1A80ED091A39
:1055300080ED111A80ED101A80ED0F1A00BFD3E72D
:10554000000000007047000010B5FB4B1B681B6893
:1055500023F00103F84C24682360F84B1B681B6898
:1055600023F00103F54C2468236007E0F24B1B682D
:105570001B6823F00103F04C24682360EE4B1B688A
:105580001B6803F00103002BF0D107E0EB4B1B6815
:105590001B6823F00103E94C24682360E74B1B6878
:1055A0001B6803F00103002BF0D1E54BDB6C1B689B
:1055B000E44CA34275D9E24BDB6C1B68E24CA3427E
:1055C00001D1202368E0DE4BDB6C1B68DD4C483CDE
:1055D000A34201D120235FE0D94BDB6C1B68DA4C7E
:1055E0006034A34201D1202356E0D54BDB6C1B680D
:1055F000D44C1834A34201D120234DE0D04BDB6CB6
:105600001B68D14C1834A34201D1DB1444E0CC4BCD
:10561000DB6C1B68CB4C303CA34201D1DB143BE07C
:10562000C74BDB6C1B68C84C7834A34201D1DB1438
:1056300032E0C34BDB6C1B68C24C3034A34201D157
:10564000DB1429E0BE4BDB6C1B68BF4C3034A3423B
:1056500002D14FF400131FE0B94BDB6C1B68B94C4F
:10566000183CA34202D14FF4001315E0B44BDB6C9D
:105670001B68B54C9034A34202D14FF400130BE0E9
:10568000AF4BDB6C1B68AF4C4834A34202D14FF4E4
:10569000001301E04FF00063AA4C4C3C236076E11C
:1056A000FFE7A74BDB6C1B68A74CA834A34275D956
:1056B000A34BDB6C1B68A44CA34201D1202369E0FF
:1056C0009F4BDB6C1B689F4C483CA34201D12023BD
:1056D00060E09B4BDB6C1B689B4C6034A34201D1A8
:1056E000202357E0964BDB6C1B68964C1834A34282
:1056F00001D120234EE0924BDB6C1B68924C183496
:10570000A34201D1DB1445E08D4BDB6C1B688D4C53
:10571000303CA34201D1DB143CE0894BDB6C1B68BD
:10572000894C7834A34201D1DB1433E0844BDB6C29
:105730001B68844C3034A34201D1DB142AE0804B37
:10574000DB6C1B68804C3034A34202D14FF4001351
:1057500020E07B4BDB6C1B687A4C183CA34202D1E7
:105760004FF4001316E0764BDB6C1B68764C9034DC
:10577000A34202D14FF400130CE0714BDB6C1B68A9
:10578000704C4834A34203D14FF4001302E005E00B
:105790004FF000636B4C503C2360F8E0684BDB6CCF
:1057A0001B68694C4834A34275D9654BDB6C1B6898
:1057B000654CA34201D1202368E0614BDB6C1B6880
:1057C000604C483CA34201D120235FE05C4BDB6C82
:1057D0001B685D4C6034A34201D1202356E0584B36
:1057E000DB6C1B68574C1834A34201D120234DE0D9
:1057F000534BDB6C1B68544C1834A34201D1DB14AF
:1058000044E04F4BDB6C1B684E4C303CA34201D153
:10581000DB143BE04A4BDB6C1B684B4C7834A342F7
:1058200001D1DB1432E0464BDB6C1B68454C303455
:10583000A34201D1DB1429E0414BDB6C1B68424CD5
:105840003034A34202D14FF400131FE03C4BDB6C19
:105850001B683C4C183CA34202D14FF4001315E0E6
:10586000374BDB6C1B68384C9034A34202D14FF4A9
:1058700000130BE0324BDB6C1B68324C4834A34204
:1058800002D14FF4001301E04FF000632E4C103CA6
:10589000E3607CE0FFE72A4BDB6C1B682A4CA342E9
:1058A00001D1202370E0264BDB6C1B68254C483C63
:1058B000A34201D1202367E0214BDB6C1B68224C03
:1058C0006034A34201D120235EE01D4BDB6C1B68DA
:1058D0001C4C1834A34201D1202355E0184BDB6C3B
:1058E0001B68194C1834A34201D1DB144CE0144B53
:1058F000DB6C1B68134C303CA34201D1DB1443E04A
:105900000F4BDB6C1B68104C7834A34201D1DB14C5
:105910003AE00B4BDB6C1B680A4C3034A34201D1DC
:10592000DB1431E0064BDB6C1B68074C3034A342C0
:105930000CD14FF4001327E0C40100202402002002
:105940006C0100205864024010600240F74BDB6C91
:105950001B68F74CA34202D14FF4001314E0F34B41
:10596000DB6C1B68F34CA34202D14FF400130BE035
:10597000EE4BDB6C1B68EE4C6034A34202D14FF45B
:10598000001301E04FF00063EA4CA03CA360E74B3A
:10599000DB6C1B68E64C1834A34274D9E34BDB6C18
:1059A0001B68E44C903CA34201D1102366E0DF4B1E
:1059B000DB6C1B68DE4C303CA34201D110235DE060
:1059C000DA4BDB6C1B68DB4C303CA34201D110236B
:1059D00054E0D64BDB6C1B68D54C3034A34201D16C
:1059E00010234BE0D14BDB6C1B68D24C783CA342BC
:1059F00001D11B1542E0CD4BDB6C1B68CC4C183C35
:105A0000A34201D11B1539E0C84BDB6C1B68C94CA4
:105A1000183CA34201D11B1530E0C44BDB6C1B6862
:105A2000C34C4834A34201D11B1527E0BF4BDB6CAC
:105A30001B68C04C603CA34202D14FF480131DE0B0
:105A4000BA4BDB6C1B68BA4CA34202D14FF48013F3
:105A500014E0B64BDB6C1B68B64CA34202D14FF48A
:105A600080130BE0B14BDB6C1B68B14C6034A3427C
:105A700002D14FF4801301E04FF08063AC4C343C12
:105A8000236070E1FFE7A94BDB6C1B68A94C18345D
:105A9000A34274D9A54BDB6C1B68A64C903CA34277
:105AA00001D1102366E0A14BDB6C1B68A04C303C9D
:105AB000A34201D110235DE09C4BDB6C1B689D4C25
:105AC000303CA34201D1102354E0984BDB6C1B689F
:105AD000974C3034A34201D110234BE0934BDB6C45
